{
  "contractName": "dhelper",
  "abi": [
    {
      "anonymous": false,
      "inputs": [
        {
          "indexed": false,
          "name": "message",
          "type": "string"
        }
      ],
      "name": "Log",
      "type": "event"
    },
    {
      "constant": true,
      "inputs": [
        {
          "name": "i",
          "type": "uint256"
        }
      ],
      "name": "uint2str",
      "outputs": [
        {
          "name": "",
          "type": "string"
        }
      ],
      "payable": false,
      "stateMutability": "pure",
      "type": "function"
    },
    {
      "constant": true,
      "inputs": [
        {
          "name": "i",
          "type": "int128"
        }
      ],
      "name": "int2str",
      "outputs": [
        {
          "name": "",
          "type": "string"
        }
      ],
      "payable": false,
      "stateMutability": "pure",
      "type": "function"
    },
    {
      "constant": true,
      "inputs": [
        {
          "name": "i",
          "type": "int128"
        }
      ],
      "name": "i64x64ToStr",
      "outputs": [
        {
          "name": "",
          "type": "string"
        }
      ],
      "payable": false,
      "stateMutability": "pure",
      "type": "function"
    }
  ],
  "bytecode": "0x610703610026600b82828239805160001a60731461001957fe5b30600052607381538281f3fe73000000000000000000000000000000000000000030146080604052600436106100565760003560e01c806341304fac1461005b5780635567be0a14610110578063d2ea6c0c146101a5578063f76f950e146101c5575b600080fd5b81801561006757600080fd5b5061010e6004803603602081101561007e57600080fd5b81019060208101813564010000000081111561009957600080fd5b8201836020820111156100ab57600080fd5b803590602001918460018302840111640100000000831117156100cd57600080fd5b91908080601f0160208091040260200160405190810160405280939291908181526020018383808284376000920191909152509295506101e2945050505050565b005b6101306004803603602081101561012657600080fd5b5035600f0b61027e565b6040805160208082528351818301528351919283929083019185019080838360005b8381101561016a578181015183820152602001610152565b50505050905090810190601f1680156101975780820380516001836020036101000a031916815260200191505b509250505060405180910390f35b610130600480360360208110156101bb57600080fd5b5035600f0b6102e8565b610130600480360360208110156101db57600080fd5b50356103cd565b7fcf34ef537ac33ee1ac626ca1587a0a7e8e51561e5514f8cb36afa1c5102b3bab816040518080602001828103825283818151815260200191508051906020019080838360005b83811015610241578181015183820152602001610229565b50505050905090810190601f16801561026e5780820380516001836020036101000a031916815260200191505b509250505060405180910390a150565b60606402540be400600f83810b604081811c9267ffffffffffffffff1990921684028685020390910b901c6102dd6102b5836103cd565b604051806040016040528060018152602001601760f91b8152506102d8846103cd565b610485565b93505050505b919050565b606081600f0b6000141561031457506040805180820190915260018152600360fc1b60208201526102e3565b600f82900b60005b811561033057600101600a8205915061031c565b6060816040519080825280601f01601f19166020018201604052801561035d576020820181803883390190505b50905060001982015b85600f0b6000146103c457600a86600f0b8161037e57fe5b0760300160f81b8282806001900393508151811061039857fe5b60200101906001600160f81b031916908160001a905350600a86600f0b816103bc57fe5b059550610366565b50949350505050565b6060816103f257506040805180820190915260018152600360fc1b60208201526102e3565b8160005b811561040a57600101600a820491506103f6565b6060816040519080825280601f01601f191660200182016040528015610437576020820181803883390190505b50905060001982015b85156103c457600a860660300160f81b8282806001900393508151811061046357fe5b60200101906001600160f81b031916908160001a905350600a86049550610440565b60606104b284848460405180602001604052806000815250604051806020016040528060008152506104ba565b949350505050565b6060808690506060869050606086905060608690506060869050606081518351855187518951010101016040519080825280601f01601f19166020018201604052801561050e576020820181803883390190505b509050806000805b88518110156105675788818151811061052b57fe5b602001015160f81c60f81b83838060010194508151811061054857fe5b60200101906001600160f81b031916908160001a905350600101610516565b5060005b87518110156105bc5787818151811061058057fe5b602001015160f81c60f81b83838060010194508151811061059d57fe5b60200101906001600160f81b031916908160001a90535060010161056b565b5060005b8651811015610611578681815181106105d557fe5b602001015160f81c60f81b8383806001019450815181106105f257fe5b60200101906001600160f81b031916908160001a9053506001016105c0565b5060005b85518110156106665785818151811061062a57fe5b602001015160f81c60f81b83838060010194508151811061064757fe5b60200101906001600160f81b031916908160001a905350600101610615565b5060005b84518110156106bb5784818151811061067f57fe5b602001015160f81c60f81b83838060010194508151811061069c57fe5b60200101906001600160f81b031916908160001a90535060010161066a565b50909d9c5050505050505050505050505056fea265627a7a723058204997900afe8b15b7f4cbae6731557502fc7fa90d2a652b4138ed96e2e595bb2464736f6c63430005090032",
  "source": "/**\n * Debug helper for SnailToken.sol.\n *\n * (c) Takeshi Kodo, under the MIT License (MIT)\n *\n\nThe following must be a part of the main contract:\n\n    // FIXME: TEST/DEBUG ONLY\n    // BEGIN LOG\n    event Log(string message);\n    event LogUint(uint message);\n    function log(string memory message) public {\n        emit Log(message);\n    }\n    function logUint(uint message) public {\n        emit LogUint(message);\n    }\n    // END LOG\n\nUsage:\n\n    dhelper.log(\"<totalSnlRate()>\");\n    dhelper.log(dhelper.uint2str(totalSnlRate));\n    dhelper.log(\"<theta>\");\n    dhelper.log(dhelper.i64x64ToStr(theta));\n\n */\npragma solidity ^0.5.8;\n\n\nlibrary dhelper {\n\n    event Log(string message);\n\n    function log(string memory message) public {\n        emit Log(message);\n    }\n\n    function uint2str(uint i) public pure returns (string memory) {\n        if (i == 0) return \"0\";\n        uint j = i;\n        uint length;\n        while (j != 0){\n            length++;\n            j /= 10;\n        }\n        bytes memory bstr = new bytes(length);\n        uint k = length - 1;\n        while (i != 0){\n            bstr[k--] = byte(uint8(48 + i % 10));\n            i /= 10;\n        }\n        return string(bstr);\n    }\n\n    function int2str(int128 i) public pure returns (string memory) {\n        if (i == 0) return \"0\";\n        int j = i;\n        uint length;\n        while (j != 0){\n            length++;\n            j /= 10;\n        }\n        bytes memory bstr = new bytes(length);\n        uint k = length - 1;\n        while (i != 0){\n            bstr[k--] = byte(uint8(48 + i % 10));\n            i /= 10;\n        }\n        return string(bstr);\n    }\n\n    function i64x64ToStr(int128 i) public pure returns (string memory) {\n        int128 eps = 10**10; // number of digits after dot\n        uint hi = uint(i) >> 64;\n        uint lo = uint(i * eps - int128 (hi << 64) * eps) >> 64;\n        return strConcat(uint2str(hi), \".\", uint2str(lo));\n    }\n\n    function strConcat(string memory _a, string memory _b, string memory _c, string memory _d, string memory _e) internal pure returns (string memory){\n        bytes memory _ba = bytes(_a);\n        bytes memory _bb = bytes(_b);\n        bytes memory _bc = bytes(_c);\n        bytes memory _bd = bytes(_d);\n        bytes memory _be = bytes(_e);\n        string memory abcde = new string(_ba.length + _bb.length + _bc.length + _bd.length + _be.length);\n        bytes memory babcde = bytes(abcde);\n        uint k = 0;\n        for (uint i = 0; i < _ba.length; i++) babcde[k++] = _ba[i];\n        for (uint i = 0; i < _bb.length; i++) babcde[k++] = _bb[i];\n        for (uint i = 0; i < _bc.length; i++) babcde[k++] = _bc[i];\n        for (uint i = 0; i < _bd.length; i++) babcde[k++] = _bd[i];\n        for (uint i = 0; i < _be.length; i++) babcde[k++] = _be[i];\n        return string(babcde);\n    }\n\n    function strConcat(string memory _a, string memory _b, string memory _c, string memory _d) internal pure returns (string memory) {\n        return strConcat(_a, _b, _c, _d, \"\");\n    }\n\n    function strConcat(string memory _a, string memory _b, string memory _c) internal pure returns (string memory) {\n        return strConcat(_a, _b, _c, \"\", \"\");\n    }\n\n    function strConcat(string memory _a, string memory _b) internal pure returns (string memory) {\n        return strConcat(_a, _b, \"\", \"\", \"\");\n    }\n}",
  "sourcePath": "/Users/tk/dev/snl/shared/snl-wallet/contracts/dhelper.sol",
  "compiler": {
    "name": "solc",
    "version": "0.5.9+commit.e560f70d.Emscripten.clang"
  },
  "schemaVersion": "3.0.10",
  "updatedAt": "2019-06-13T09:42:19.731Z",
  "devdoc": {
    "methods": {}
  },
  "userdoc": {
    "methods": {}
  }
}