{
  "contractName": "SnailToken",
  "abi": [
    {
      "constant": true,
      "inputs": [],
      "name": "name",
      "outputs": [
        {
          "name": "",
          "type": "string"
        }
      ],
      "payable": false,
      "stateMutability": "view",
      "type": "function"
    },
    {
      "constant": false,
      "inputs": [
        {
          "name": "spender",
          "type": "address"
        },
        {
          "name": "value",
          "type": "uint256"
        }
      ],
      "name": "approve",
      "outputs": [
        {
          "name": "",
          "type": "bool"
        }
      ],
      "payable": false,
      "stateMutability": "nonpayable",
      "type": "function"
    },
    {
      "constant": true,
      "inputs": [],
      "name": "decimals",
      "outputs": [
        {
          "name": "",
          "type": "uint8"
        }
      ],
      "payable": false,
      "stateMutability": "view",
      "type": "function"
    },
    {
      "constant": false,
      "inputs": [
        {
          "name": "spender",
          "type": "address"
        },
        {
          "name": "addedValue",
          "type": "uint256"
        }
      ],
      "name": "increaseAllowance",
      "outputs": [
        {
          "name": "",
          "type": "bool"
        }
      ],
      "payable": false,
      "stateMutability": "nonpayable",
      "type": "function"
    },
    {
      "constant": true,
      "inputs": [],
      "name": "DAY_IN_SECONDS",
      "outputs": [
        {
          "name": "",
          "type": "uint256"
        }
      ],
      "payable": false,
      "stateMutability": "view",
      "type": "function"
    },
    {
      "constant": true,
      "inputs": [
        {
          "name": "account",
          "type": "address"
        }
      ],
      "name": "balanceOf",
      "outputs": [
        {
          "name": "",
          "type": "uint256"
        }
      ],
      "payable": false,
      "stateMutability": "view",
      "type": "function"
    },
    {
      "constant": true,
      "inputs": [],
      "name": "symbol",
      "outputs": [
        {
          "name": "",
          "type": "string"
        }
      ],
      "payable": false,
      "stateMutability": "view",
      "type": "function"
    },
    {
      "constant": false,
      "inputs": [
        {
          "name": "spender",
          "type": "address"
        },
        {
          "name": "subtractedValue",
          "type": "uint256"
        }
      ],
      "name": "decreaseAllowance",
      "outputs": [
        {
          "name": "",
          "type": "bool"
        }
      ],
      "payable": false,
      "stateMutability": "nonpayable",
      "type": "function"
    },
    {
      "constant": true,
      "inputs": [
        {
          "name": "owner",
          "type": "address"
        },
        {
          "name": "spender",
          "type": "address"
        }
      ],
      "name": "allowance",
      "outputs": [
        {
          "name": "",
          "type": "uint256"
        }
      ],
      "payable": false,
      "stateMutability": "view",
      "type": "function"
    },
    {
      "constant": true,
      "inputs": [],
      "name": "NUM_OF_RATES",
      "outputs": [
        {
          "name": "",
          "type": "uint256"
        }
      ],
      "payable": false,
      "stateMutability": "view",
      "type": "function"
    },
    {
      "inputs": [],
      "payable": false,
      "stateMutability": "nonpayable",
      "type": "constructor"
    },
    {
      "anonymous": false,
      "inputs": [
        {
          "indexed": false,
          "name": "sender",
          "type": "address"
        },
        {
          "indexed": false,
          "name": "snlAmount",
          "type": "uint256"
        },
        {
          "indexed": false,
          "name": "interest",
          "type": "uint256"
        }
      ],
      "name": "InterestOnSnl",
      "type": "event"
    },
    {
      "anonymous": false,
      "inputs": [
        {
          "indexed": false,
          "name": "buyer",
          "type": "address"
        },
        {
          "indexed": false,
          "name": "snlAmount",
          "type": "uint256"
        },
        {
          "indexed": false,
          "name": "ethAmount",
          "type": "uint256"
        }
      ],
      "name": "SoldSnl",
      "type": "event"
    },
    {
      "anonymous": false,
      "inputs": [
        {
          "indexed": false,
          "name": "seller",
          "type": "address"
        },
        {
          "indexed": false,
          "name": "snlAmount",
          "type": "uint256"
        },
        {
          "indexed": false,
          "name": "ethAmount",
          "type": "uint256"
        }
      ],
      "name": "BoughtSnl",
      "type": "event"
    },
    {
      "anonymous": false,
      "inputs": [
        {
          "indexed": true,
          "name": "from",
          "type": "address"
        },
        {
          "indexed": true,
          "name": "to",
          "type": "address"
        },
        {
          "indexed": false,
          "name": "value",
          "type": "uint256"
        }
      ],
      "name": "Transfer",
      "type": "event"
    },
    {
      "anonymous": false,
      "inputs": [
        {
          "indexed": true,
          "name": "owner",
          "type": "address"
        },
        {
          "indexed": true,
          "name": "spender",
          "type": "address"
        },
        {
          "indexed": false,
          "name": "value",
          "type": "uint256"
        }
      ],
      "name": "Approval",
      "type": "event"
    },
    {
      "constant": true,
      "inputs": [],
      "name": "totalSupply",
      "outputs": [
        {
          "name": "",
          "type": "uint256"
        }
      ],
      "payable": false,
      "stateMutability": "view",
      "type": "function"
    },
    {
      "constant": true,
      "inputs": [],
      "name": "getEthDeposit",
      "outputs": [
        {
          "name": "",
          "type": "uint256"
        }
      ],
      "payable": false,
      "stateMutability": "view",
      "type": "function"
    },
    {
      "constant": true,
      "inputs": [
        {
          "name": "day",
          "type": "uint256"
        }
      ],
      "name": "getTotalRate",
      "outputs": [
        {
          "name": "",
          "type": "uint256"
        }
      ],
      "payable": false,
      "stateMutability": "view",
      "type": "function"
    },
    {
      "constant": true,
      "inputs": [
        {
          "name": "holder",
          "type": "address"
        },
        {
          "name": "day",
          "type": "uint256"
        }
      ],
      "name": "getHolderRate",
      "outputs": [
        {
          "name": "",
          "type": "uint256"
        }
      ],
      "payable": false,
      "stateMutability": "view",
      "type": "function"
    },
    {
      "constant": true,
      "inputs": [
        {
          "name": "amountSnl",
          "type": "uint256"
        }
      ],
      "name": "convSnl2Eth",
      "outputs": [
        {
          "name": "",
          "type": "uint256"
        }
      ],
      "payable": false,
      "stateMutability": "view",
      "type": "function"
    },
    {
      "constant": true,
      "inputs": [
        {
          "name": "amountEth",
          "type": "uint256"
        }
      ],
      "name": "convEth2Snl",
      "outputs": [
        {
          "name": "",
          "type": "uint256"
        }
      ],
      "payable": false,
      "stateMutability": "view",
      "type": "function"
    },
    {
      "constant": true,
      "inputs": [
        {
          "name": "holder",
          "type": "address"
        },
        {
          "name": "_timestamp",
          "type": "uint256"
        }
      ],
      "name": "getRates",
      "outputs": [
        {
          "name": "",
          "type": "uint256"
        },
        {
          "name": "",
          "type": "uint256"
        }
      ],
      "payable": false,
      "stateMutability": "view",
      "type": "function"
    },
    {
      "constant": true,
      "inputs": [
        {
          "name": "holder",
          "type": "address"
        },
        {
          "name": "amountSnl",
          "type": "uint256"
        },
        {
          "name": "_timestamp",
          "type": "uint256"
        }
      ],
      "name": "getSnlInterestPct",
      "outputs": [
        {
          "name": "",
          "type": "uint256"
        }
      ],
      "payable": false,
      "stateMutability": "view",
      "type": "function"
    },
    {
      "constant": true,
      "inputs": [
        {
          "name": "holder",
          "type": "address"
        },
        {
          "name": "amountSnl",
          "type": "uint256"
        }
      ],
      "name": "getSnlInterestPct",
      "outputs": [
        {
          "name": "",
          "type": "uint256"
        }
      ],
      "payable": false,
      "stateMutability": "view",
      "type": "function"
    },
    {
      "constant": true,
      "inputs": [
        {
          "name": "holder",
          "type": "address"
        },
        {
          "name": "amountSnl",
          "type": "uint256"
        }
      ],
      "name": "getSnlInterest",
      "outputs": [
        {
          "name": "",
          "type": "uint256"
        }
      ],
      "payable": false,
      "stateMutability": "view",
      "type": "function"
    },
    {
      "constant": true,
      "inputs": [
        {
          "name": "holder",
          "type": "address"
        },
        {
          "name": "amountSnl",
          "type": "uint256"
        },
        {
          "name": "_timestamp",
          "type": "uint256"
        }
      ],
      "name": "getSnlInterest",
      "outputs": [
        {
          "name": "",
          "type": "uint256"
        }
      ],
      "payable": false,
      "stateMutability": "view",
      "type": "function"
    },
    {
      "constant": false,
      "inputs": [],
      "name": "depositEth",
      "outputs": [
        {
          "name": "",
          "type": "bool"
        }
      ],
      "payable": true,
      "stateMutability": "payable",
      "type": "function"
    },
    {
      "constant": false,
      "inputs": [
        {
          "name": "amountSnl",
          "type": "uint256"
        }
      ],
      "name": "withdrawEth",
      "outputs": [
        {
          "name": "",
          "type": "bool"
        }
      ],
      "payable": false,
      "stateMutability": "nonpayable",
      "type": "function"
    },
    {
      "constant": false,
      "inputs": [
        {
          "name": "_to",
          "type": "address"
        },
        {
          "name": "_value",
          "type": "uint256"
        }
      ],
      "name": "transfer",
      "outputs": [
        {
          "name": "",
          "type": "bool"
        }
      ],
      "payable": false,
      "stateMutability": "nonpayable",
      "type": "function"
    },
    {
      "constant": false,
      "inputs": [
        {
          "name": "_from",
          "type": "address"
        },
        {
          "name": "_to",
          "type": "address"
        },
        {
          "name": "_value",
          "type": "uint256"
        }
      ],
      "name": "transferFrom",
      "outputs": [
        {
          "name": "",
          "type": "bool"
        }
      ],
      "payable": false,
      "stateMutability": "nonpayable",
      "type": "function"
    }
  ],
  "bytecode": "0x60806040523480156200001157600080fd5b506040518060400160405280600a81526020017f536e61696c546f6b656e000000000000000000000000000000000000000000008152506040518060400160405280600381526020017f534e4c00000000000000000000000000000000000000000000000000000000008152506012826003908051906020019062000098929190620003c2565b508151620000ae906004906020850190620003c2565b506005805442600655336101008102610100600160a81b031960ff90951660ff19909316929092179390931617905562000100925090506a0156a1cc5c988c1145cf2a6001600160e01b036200020d16565b426008819055506200011e60106200032860201b62001d161760201c565b600d60006101000a8154816001600160801b030219169083600f0b6001600160801b031602179055506200015e60046200032860201b62001d161760201c565b600d60106101000a8154816001600160801b030219169083600f0b6001600160801b031602179055506200019e601a6200032860201b62001d161760201c565b600e60006101000a8154816001600160801b030219169083600f0b6001600160801b03160217905550620001de60016200032860201b62001d161760201c565b600e60106101000a8154816001600160801b030219169083600f0b6001600160801b0316021790555062000467565b6001600160a01b0382166200028357604080517f08c379a000000000000000000000000000000000000000000000000000000000815260206004820152601f60248201527f45524332303a206d696e7420746f20746865207a65726f206164647265737300604482015290519081900360640190fd5b6200029f816002546200034660201b6200155e1790919060201c565b6002556001600160a01b03821660009081526020818152604090912054620002d29183906200155e62000346821b17901c565b6001600160a01b0383166000818152602081815260408083209490945583518581529351929391927fddf252ad1be2c89b69c2b068fc378daa952ba7f163c4a11628f55a4df523b3ef9281900390910190a35050565b600060016001603f1b038211156200033f57600080fd5b5060401b90565b600082820183811015620003bb57604080517f08c379a000000000000000000000000000000000000000000000000000000000815260206004820152601b60248201527f536166654d6174683a206164646974696f6e206f766572666c6f770000000000604482015290519081900360640190fd5b9392505050565b828054600181600116156101000203166002900490600052602060002090601f016020900481019282601f106200040557805160ff191683800117855562000435565b8280016001018555821562000435579182015b828111156200043557825182559160200191906001019062000418565b506200044392915062000447565b5090565b6200046491905b808211156200044357600081556001016200044e565b90565b611fdf80620004776000396000f3fe6080604052600436106101665760003560e01c806370a08231116100d1578063a9059cbb1161008a578063ddfafa9611610064578063ddfafa96146105b4578063dfcaaf6914610606578063f097d4a11461061b578063ff813eb01461065a57610166565b8063a9059cbb14610516578063c311d0491461054f578063dd62ed3e1461057957610166565b806370a0823114610408578063715b913b1461043b5780638c572e831461046557806395d89b411461049e57806398c829bc146104b3578063a457c2d7146104dd57610166565b806320d8171d1161012357806320d8171d1461031a57806323b872dd14610344578063313ce5671461038757806339509351146103b2578063439370b1146103eb5780635fdc6281146103f357610166565b806306fdde031461016b578063095ea7b3146101f557806311e536921461024257806312ba95bc1461028d57806318160ddd146102c65780631a0ee1a9146102db575b600080fd5b34801561017757600080fd5b5061018061066f565b6040805160208082528351818301528351919283929083019185019080838360005b838110156101ba5781810151838201526020016101a2565b50505050905090810190601f1680156101e75780820380516001836020036101000a031916815260200191505b509250505060405180910390f35b34801561020157600080fd5b5061022e6004803603604081101561021857600080fd5b506001600160a01b038135169060200135610705565b604080519115158252519081900360200190f35b34801561024e57600080fd5b5061027b6004803603604081101561026557600080fd5b506001600160a01b03813516906020013561071c565b60408051918252519081900360200190f35b34801561029957600080fd5b5061027b600480360360408110156102b057600080fd5b506001600160a01b038135169060200135610730565b3480156102d257600080fd5b5061027b61073d565b3480156102e757600080fd5b5061027b600480360360608110156102fe57600080fd5b506001600160a01b0381351690602081013590604001356107c4565b34801561032657600080fd5b5061027b6004803603602081101561033d57600080fd5b50356107eb565b34801561035057600080fd5b5061022e6004803603606081101561036757600080fd5b506001600160a01b03813581169160208101359091169060400135610812565b34801561039357600080fd5b5061039c610987565b6040805160ff9092168252519081900360200190f35b3480156103be57600080fd5b5061022e600480360360408110156103d557600080fd5b506001600160a01b038135169060200135610990565b61022e6109d1565b3480156103ff57600080fd5b5061027b610b60565b34801561041457600080fd5b5061027b6004803603602081101561042b57600080fd5b50356001600160a01b0316610b67565b34801561044757600080fd5b5061027b6004803603602081101561045e57600080fd5b5035610b82565b34801561047157600080fd5b5061027b6004803603604081101561048857600080fd5b506001600160a01b038135169060200135610b94565b3480156104aa57600080fd5b50610180610bbc565b3480156104bf57600080fd5b5061027b600480360360208110156104d657600080fd5b5035610c1d565b3480156104e957600080fd5b5061022e6004803603604081101561050057600080fd5b506001600160a01b038135169060200135610c2a565b34801561052257600080fd5b5061022e6004803603604081101561053957600080fd5b506001600160a01b038135169060200135610c66565b34801561055b57600080fd5b5061022e6004803603602081101561057257600080fd5b5035610dcc565b34801561058557600080fd5b5061027b6004803603604081101561059c57600080fd5b506001600160a01b0381358116916020013516610fcc565b3480156105c057600080fd5b506105ed600480360360408110156105d757600080fd5b506001600160a01b038135169060200135610ff7565b6040805192835260208301919091528051918290030190f35b34801561061257600080fd5b5061027b611016565b34801561062757600080fd5b5061027b6004803603606081101561063e57600080fd5b506001600160a01b038135169060208101359060400135611026565b34801561066657600080fd5b5061027b611095565b60038054604080516020601f60026000196101006001881615020190951694909404938401819004810282018101909252828152606093909290918301828280156106fb5780601f106106d0576101008083540402835291602001916106fb565b820191906000526020600020905b8154815290600101906020018083116106de57829003601f168201915b5050505050905090565b600061071233848461109a565b5060015b92915050565b60006107298383426107c4565b9392505050565b6000610729838342611026565b600080610748611186565b90506006546301e133800142108061077c575060055481906107779061010090046001600160a01b0316610b67565b600202115b156107af576005546107ac9061079f9061010090046001600160a01b0316610b67565b829063ffffffff61118c16565b90505b80156107bb57806107be565b60015b91505090565b60006107d96107d48585856111e9565b6112ef565b67ffffffffffffffff16949350505050565b6000806108066107f9611016565b61080161073d565b61130b565b90506107298184611391565b6005546000906001600160a01b038481166101009092041614156108675760405162461bcd60e51b8152600401808060200182810382526028815260200180611d586028913960400191505060405180910390fd5b426000610875338584611026565b9050610887848263ffffffff61118c16565b9350600084116108de576040805162461bcd60e51b815260206004820152601860248201527f7472616e7366657246726f6d3a207a65726f2076616c75650000000000000000604482015290519081900360640190fd5b6108e884836113fd565b5080156108f9576108f93382611433565b6040805133815285830160208201528082018390529051600080516020611d808339815191529181900360600190a161093386868661150c565b61097b576040805162461bcd60e51b81526020600482015260146024820152731d1c985b9cd9995c919c9bdb4e8819985a5b195960621b604482015290519081900360640190fd5b50600195945050505050565b60055460ff1690565b3360008181526001602090815260408083206001600160a01b038716845290915281205490916107129185906109cc908663ffffffff61155e16565b61109a565b60055460009061010090046001600160a01b0316331415610a235760405162461bcd60e51b8152600401808060200182810382526026815260200180611e2b6026913960400191505060405180910390fd5b60003411610a625760405162461bcd60e51b8152600401808060200182810382526028815260200180611ec16028913960400191505060405180910390fd5b6000610a6f3460016115b8565b905060008111610ab05760405162461bcd60e51b8152600401808060200182810382526028815260200180611f5a6028913960400191505060405180910390fd5b426000610abe338484611026565b9050610ad0838263ffffffff61118c16565b9250610adc83836113fd565b50610ae7338461160e565b604080513381528483016020820152348183015290517fe30af93ae01d2aa9a92877abd48e5f2e99ee992051a8da0720abd6594324e1da9181900360600190a16040805133815284830160208201528082018390529051600080516020611d808339815191529181900360600190a16001935050505090565b6201518081565b6001600160a01b031660009081526020819052604090205490565b6000908152600a602052604090205490565b6001600160a01b03919091166000908152600c60209081526040808320938352929052205490565b60048054604080516020601f60026000196101006001881615020190951694909404938401819004810282018101909252828152606093909290918301828280156106fb5780601f106106d0576101008083540402835291602001916106fb565b60006107168260006115b8565b3360008181526001602090815260408083206001600160a01b038716845290915281205490916107129185906109cc908663ffffffff61118c16565b6005546000906001600160a01b03848116610100909204161415610cbb5760405162461bcd60e51b8152600401808060200182810382526024815260200180611da06024913960400191505060405180910390fd5b426000610cc9338584611026565b9050610cdb848263ffffffff61118c16565b935060008411610d29576040805162461bcd60e51b81526020600482015260146024820152737472616e736665723a207a65726f2076616c756560601b604482015290519081900360640190fd5b610d3384836113fd565b508015610d4457610d443382611433565b6040805133815285830160208201528082018390529051600080516020611d808339815191529181900360600190a1610d7d85856116fe565b610dc1576040805162461bcd60e51b815260206004820152601060248201526f1d1c985b9cd9995c8e8819985a5b195960821b604482015290519081900360640190fd5b506001949350505050565b6000808211610e0c5760405162461bcd60e51b8152600401808060200182810382526029815260200180611f826029913960400191505060405180910390fd5b81610e1633610b67565b1015610e535760405162461bcd60e51b8152600401808060200182810382526021815260200180611ee96021913960400191505060405180910390fd5b426000610e61338584611026565b9050610e73848263ffffffff61118c16565b9350610e7f84836113fd565b506000610e8b856107eb565b90503031818111610ee3576040805162461bcd60e51b815260206004820152601b60248201527f77697468647261774574683a206e6f7420656e6f756768204554480000000000604482015290519081900360640190fd5b610eef33848801611433565b60408051338152878501602082015280820184905290517fcc85adc74c7364068f4d8cbcd901f8bb65bd228d092aa8085fde5259ba488c069181900360600190a16040805133815287850160208201528082018590529051600080516020611d808339815191529181900360600190a1604051339083156108fc029084906000818181858888f1935050505061097b576040805162461bcd60e51b815260206004820152601f60248201527f77697468647261774574683a206661696c656420746f2073656e642045544800604482015290519081900360640190fd5b6001600160a01b03918216600090815260016020908152604080832093909416825291909152205490565b60008062015180830461100a858261170b565b92509250509250929050565b6000303180156107bb57806107be565b6000806110348585856111e9565b9050600060646110448387611391565b8161104b57fe5b04905080851161108c5760405162461bcd60e51b815260040180806020018281038252602a815260200180611e51602a913960400191505060405180910390fd5b95945050505050565b601981565b6001600160a01b0383166110df5760405162461bcd60e51b8152600401808060200182810382526024815260200180611f0a6024913960400191505060405180910390fd5b6001600160a01b0382166111245760405162461bcd60e51b8152600401808060200182810382526022815260200180611dc46022913960400191505060405180910390fd5b6001600160a01b03808416600081815260016020908152604080832094871680845294825291829020859055815185815291517f8c5be1e5ebec7d5bd14f71427d1e84f3dd0314c0f7b2291e5b200ac8c7c3b9259281900390910190a3505050565b60025490565b6000828211156111e3576040805162461bcd60e51b815260206004820152601e60248201527f536166654d6174683a207375627472616374696f6e206f766572666c6f770000604482015290519081900360640190fd5b50900390565b60008060006111f88685610ff7565b90860192508501905060008561120c61073d565b01905060008661121b89610b67565b019050600061122d82606402846117b1565b9050600061123e85606402876117b1565b9050600061125a61124f83856117e8565b600e54600f0b6117f6565b9050600061127a61126a8d610b67565b60640261127561073d565b6117b1565b905060006112c96112c46112b26112a085600d60009054906101000a9004600f0b6117f6565b600e54600160801b9004600f0b61182e565b600d54600160801b9004600f0b61185f565b611896565b90506112de6112d8848361182e565b826118bd565b9d9c50505050505050505050505050565b60008082600f0b121561130157600080fd5b50600f0b60401d90565b60008061131884846117b1565b905060016001607f1b03600f82900b1261133c5760016001607f1b03915050610716565b68040000000000000000600f82900b13156113745761136c61135d82611896565b6802000000000000000061185f565b915050610716565b600160401b600f82900b121561072957600160401b915050610716565b6000816113a057506000610716565b600083600f0b12156113b157600080fd5b600f83900b6001600160801b038316810260401c90608084901c026001600160c01b038111156113e057600080fd5b60401b6000198290038111156113f557600080fd5b019392505050565b60006201518082048161141085836118f0565b90508080156114245750611424858361195b565b60088590559250505092915050565b6001600160a01b0382166114785760405162461bcd60e51b8152600401808060200182810382526021815260200180611e7b6021913960400191505060405180910390fd5b60025461148b908263ffffffff61118c16565b6002556001600160a01b0382166000908152602081905260409020546114b7908263ffffffff61118c16565b6001600160a01b038316600081815260208181526040808320949094558351858152935191937fddf252ad1be2c89b69c2b068fc378daa952ba7f163c4a11628f55a4df523b3ef929081900390910190a35050565b60006115198484846119f0565b6001600160a01b0384166000908152600160209081526040808320338085529252909120546115549186916109cc908663ffffffff61118c16565b5060019392505050565b600082820183811015610729576040805162461bcd60e51b815260206004820152601b60248201527f536166654d6174683a206164646974696f6e206f766572666c6f770000000000604482015290519081900360640190fd5b6000806115c3611016565b905082156115ec578381116115d95760016115e9565b6115e9818563ffffffff61118c16565b90505b60006116026115fd8361080161073d565b611b32565b905061108c8186611391565b6001600160a01b038216611669576040805162461bcd60e51b815260206004820152601f60248201527f45524332303a206d696e7420746f20746865207a65726f206164647265737300604482015290519081900360640190fd5b60025461167c908263ffffffff61155e16565b6002556001600160a01b0382166000908152602081905260409020546116a8908263ffffffff61155e16565b6001600160a01b0383166000818152602081815260408083209490945583518581529351929391927fddf252ad1be2c89b69c2b068fc378daa952ba7f163c4a11628f55a4df523b3ef9281900390910190a35050565b60006107123384846119f0565b6000808080805b601981101561175d578086036000818152600a60209081526040808320546001600160a01b038c168452600c8352818420948452939091529020549301929190910190600101611712565b50601991829004919004818111156117a65760405162461bcd60e51b815260040180806020018281038252602c815260200180611f2e602c913960400191505060405180910390fd5b909590945092505050565b6000816117bd57600080fd5b60006117c98484611b82565b905060016001607f1b036001600160801b038216111561072957600080fd5b600f91820b910b0160011d90565b600061180a82670de0b6b3a7640000611391565b61181c84670de0b6b3a7640000611391565b106118275781610729565b5090919050565b600061184282670de0b6b3a7640000611391565b61185484670de0b6b3a7640000611391565b116118275781610729565b6000600f83810b9083900b0260401d60016001607f1b0319811280159061188d575060016001607f1b038113155b61072957600080fd5b60008082600f0b12156118a857600080fd5b610716604083600f0b901b600160401b611caa565b6000600f82810b9084900b0360016001607f1b0319811280159061188d575060016001607f1b0381131561072957600080fd5b60008160075411156119335760405162461bcd60e51b8152600401808060200182810382526022815260200180611e096022913960400191505060405180910390fd5b6000828152600a60205260409020805484019055600754821115610712575060075550600190565b336000908152600b60205260408120548210156119a95760405162461bcd60e51b8152600401808060200182810382526023815260200180611de66023913960400191505060405180910390fd5b336000818152600c602090815260408083208684528252808320805488019055928252600b905220548211156107125750336000908152600b602052604090205550600190565b6001600160a01b038316611a355760405162461bcd60e51b8152600401808060200182810382526025815260200180611e9c6025913960400191505060405180910390fd5b6001600160a01b038216611a7a5760405162461bcd60e51b8152600401808060200182810382526023815260200180611d356023913960400191505060405180910390fd5b6001600160a01b038316600090815260208190526040902054611aa3908263ffffffff61118c16565b6001600160a01b038085166000908152602081905260408082209390935590841681522054611ad8908263ffffffff61155e16565b6001600160a01b038084166000818152602081815260409182902094909455805185815290519193928716927fddf252ad1be2c89b69c2b068fc378daa952ba7f163c4a11628f55a4df523b3ef92918290030190a3505050565b600081600f0b60001415611b4557600080fd5b600082600f0b600160801b81611b5757fe5b05905060016001607f1b03198112801590611b79575060016001607f1b038113155b61071657600080fd5b600081611b8e57600080fd5b60006001600160c01b038411611bb35782604085901b81611bab57fe5b049050611c96565b60c060ff5b80821015611bfc5781810160011c86811c80611bd957600182039250611bf5565b6001811115611bed57816001019350611bf5565b509150611bfc565b5050611bb8565b60bf820360018603901c6001018260ff0387901b81611c1757fe5b0492506001600160801b03831115611c2e57600080fd5b608085901c83026001600160801b038616840260c088901c604089901b82811015611c5a576001820391505b608084901b92900382811015611c71576001820391505b829003608084901c8214611c8157fe5b888181611c8a57fe5b04870196505050505050505b6001600160801b0381111561072957600080fd5b600082611cb957506000610716565b60008211611cc657600080fd5b6000828481611cd157fe5b04905080831480611ce457508083600101145b15611cf25782915050610716565b80600101831415611d04579050610716565b6001818401600101901c925050611cc6565b6000677fffffffffffffff821115611d2d57600080fd5b5060401b9056fe45524332303a207472616e7366657220746f20746865207a65726f20616464726573737472616e7366657246726f6d3a20646f6e6174696f6e2061646472657373206973207365616c6564c02aebe2848fe620b4a0811be6b1e017255853ee942c60f6b0667e234732b3d17472616e736665723a20646f6e6174696f6e2061646472657373206973207365616c656445524332303a20617070726f766520746f20746865207a65726f20616464726573735f747261636b486f6c64657252617465733a2077726f6e672063757272656e744461795f747261636b546f74616c52617465733a2077726f6e672063757272656e744461796465706f7369744574683a20646f6e6174696f6e2061646472657373206973207365616c6564676574536e6c496e7465726573743a20696e746572657374206578636565647320616d6f756e74536e6c45524332303a206275726e2066726f6d20746865207a65726f206164647265737345524332303a207472616e736665722066726f6d20746865207a65726f20616464726573736465706f7369744574683a206d73672e76616c7565206d7573742062652061626f7665207a65726f77697468647261774574683a2062616c616e636520697320746f6f20736d616c6c45524332303a20617070726f76652066726f6d20746865207a65726f206164647265737367657452617465733a20696e646976696475616c2072617465206578636565647320746f74616c20726174656465706f7369744574683a20616d6f756e74536e6c206d7573742062652061626f7665207a65726f77697468647261774574683a20616d6f756e74536e6c206d7573742062652061626f7665207a65726fa265627a7a72305820a68e6707dd5ae88509301823126cba84130f3dc0f158d88e1563796fe0ca482964736f6c63430005090032",
  "source": "/**\n * Mr. Snail is quite slow,\n * other markets falling low..\n * Put some snails in your pocket,\n * take a ride on crypto rocket!\n *\n * (c) Takeshi Kodo, under the MIT License (MIT)\n */\npragma solidity ^0.5.8;\n\nimport 'openzeppelin-solidity/contracts/token/ERC20/ERC20.sol';\nimport 'openzeppelin-solidity/contracts/token/ERC20/ERC20Detailed.sol';\nimport 'openzeppelin-solidity/contracts/math/SafeMath.sol';\nimport './f64.sol';\n\n\n/**\n * The price of the token is computed as a ratio of the ETH deposit (reserve) to the\n * total token supply. Deposit, withdraw or transfer operations may charge interest\n * depending on the transaction rate. Interest is added to the common deposit,\n * which is then shared between all of the token holders.\n */\ncontract SnailToken is ERC20, ERC20Detailed {\n    using f64 for int128;\n    using SafeMath for uint256;\n    int128 private constant MAX_PRICE = 0x7FFFFFFFFFFFFFFFFFFFFFFFFFFFFFFF;\n    uint256 private constant DONATED = 1618033988749894848204586; //16e24\n    uint256 private constant CMP_PCN = 1000000000000000000; //1e18\n    address private donationAddress;\n    uint256 private donationDate;\n    // Track the transfer rates.\n    uint256 private lastTrackedDay;\n    uint256 private anyLastTracking;\n    mapping(address => uint256) private lastHolderTransfer;\n    mapping (uint256 => uint256) private lastTotalRates;\n    mapping (address => uint256) private lastHolderTrackedDay;\n    mapping (address => mapping (uint256 => uint256)) private lastHolderRates;\n    // Only last 25 days are considered.\n    uint256 public constant NUM_OF_RATES = 25;\n    uint256 public constant DAY_IN_SECONDS = 86400;\n    int128 private L2;\n    int128 private L;\n    int128 private M;\n    int128 private O;\n\n    event InterestOnSnl(address sender, uint256 snlAmount, uint256 interest);\n    event SoldSnl(address buyer, uint256 snlAmount, uint256 ethAmount);\n    event BoughtSnl(address seller, uint256 snlAmount, uint256 ethAmount);\n\n\n    /**\n     * Describe token: name, symbol, decimals.. and mint initial supply.\n     */\n    constructor() ERC20Detailed(\"SnailToken\", \"SNL\", 18) public {\n        donationDate = now;\n        donationAddress = msg.sender;\n        _mint(msg.sender, DONATED);\n        anyLastTracking = now;\n        L2 = f64.fromUInt(16);\n        L = f64.fromUInt(4);\n        M = f64.fromUInt(26);\n        O = f64.fromUInt(1);\n    }\n\n    function max(uint256 a, uint256 b) internal pure returns (uint256) {\n        return (a > b) ? a : b;\n    }\n\n    function min(uint256 a, uint256 b) internal pure returns (uint256) {\n        return (a < b) ? a : b;\n    }\n\n    function max(int128 a, int128 b) internal pure returns (int128) {\n        return (f64.mulu(a, CMP_PCN) > f64.mulu(b, CMP_PCN)) ? a : b;\n    }\n\n    function min(int128 a, int128 b) internal pure returns (int128) {\n        return (f64.mulu(a, CMP_PCN) < f64.mulu(b, CMP_PCN)) ? a : b;\n    }\n\n    /**\n     * Prevent donation amount of affecting the price equilibrium.\n     */\n    function totalSupply() public view returns (uint256) {\n        uint256 supplyOfSnl = super.totalSupply();\n        if (now < donationDate + 365 days || 2 * balanceOf(donationAddress) > supplyOfSnl) {\n            // Distribute donation by ignoring it in the price ratio for the next 365 days\n            // and as long as the amount is not negligibly small, i.e. can effect\n            // the pricing ratio more than by half.\n            supplyOfSnl = supplyOfSnl.sub(balanceOf(donationAddress));\n        }\n        return (supplyOfSnl == 0) ? 1 : supplyOfSnl;\n    }\n\n    /**\n     * Learn total ETH deposit supporting the token supply.\n     */\n    function getEthDeposit() public view returns (uint256) {\n        uint256 depositInEth = address(this).balance;\n        return (depositInEth == 0) ? 1 : depositInEth;\n    }\n\n    /**\n     * Learn total rate.\n     */\n    function getTotalRate(uint256 day) public view returns (uint256) {\n        return lastTotalRates[day];\n    }\n\n    /**\n     * Learn holder's rate.\n     */\n    function getHolderRate(address holder, uint256 day) public view returns (uint256) {\n        return lastHolderRates[holder][day];\n    }\n\n    /**\n     * Return the SNL/ETH ratio for price calculation.\n     *\n     * Note that 1 SNL >= 1 ETH.\n     *\n     * @param baseAmount  unsigned 256-bit integer number\n     * @param tokenAmount unsigned 256-bit integer number\n     * @return signed 64.64 fixed point number (@see f64.sol)\n     */\n    function getTokenRatio(uint256 baseAmount, uint256 tokenAmount) internal pure returns (int128) {\n        int128 ratio = f64.divu(baseAmount, tokenAmount);\n        if (ratio >= MAX_PRICE) {\n            return MAX_PRICE;\n        } else if (ratio > int128(4 << 64)) {\n            return f64.mul(f64.sqrt(ratio), int128(2 << 64));\n        } else if (ratio < int128(1 << 64)) {\n            return int128(1 << 64);\n        }\n        return ratio;\n    }\n\n    /**\n     * Convert SNL to ETH at the inner exchange rate (price), w/o applied interest.\n     */\n    function convSnl2Eth(uint256 amountSnl) public view returns (uint256) {\n        int128 price = getTokenRatio(getEthDeposit(), totalSupply());\n        return f64.mulu(price, amountSnl);\n    }\n\n    /**\n     * Called by a payable function (see convEth2Snl).\n     */\n    function _convEth2Snl(uint256 amountEth, bool payedToDeposit) internal view returns (uint256) {\n        uint256 deposit = getEthDeposit();\n        if (payedToDeposit) {\n            deposit = (deposit > amountEth) ? deposit.sub(amountEth) : 1;\n        }\n        int128 revPrice = f64.inv(getTokenRatio(deposit, totalSupply()));\n        return f64.mulu(revPrice, amountEth);\n    }\n\n    /**\n     * Convert ETH to SNL at the inner exchange rate (price), w/o applied interest.\n     */\n    function convEth2Snl(uint256 amountEth) public view returns (uint256) {\n        return _convEth2Snl(amountEth, false);\n    }\n\n    /**\n     * Track total (global) rates as a sum of all rates.\n     */\n    function _trackTotalRates(uint256 _value, uint256 currentDay) internal returns (bool)  {\n        require(lastTrackedDay <= currentDay, \"_trackTotalRates: wrong currentDay\");\n        lastTotalRates[currentDay] += _value;\n        if (lastTrackedDay < currentDay) { lastTrackedDay = currentDay; }\n        return true;\n    }\n\n    /**\n     * Very similar to the global tracking, however applied to individual holder.\n     */\n    function _trackHolderRates(uint256 _value, uint256 currentDay) internal returns (bool) {\n        require(lastHolderTrackedDay[msg.sender] <= currentDay, \"_trackHolderRates: wrong currentDay\");\n        lastHolderRates[msg.sender][currentDay] += _value;\n        if (lastHolderTrackedDay[msg.sender] < currentDay) { lastHolderTrackedDay[msg.sender] = currentDay; }\n        return true;\n    }\n\n    /**\n     * Track transfer rates (volumes).\n     */\n    function trackSnlRates(uint256 _value, uint256 _timestamp) internal returns (bool)  {\n        uint256 currentDay = _timestamp / DAY_IN_SECONDS;\n        bool res = _trackTotalRates(_value, currentDay);\n        res = res && _trackHolderRates(_value, currentDay);\n        anyLastTracking = _timestamp;\n        return res;\n    }\n\n    /**\n     * Get transfer rates: total and individual (holder's).\n     *\n     * Ignore outdated data since last tracking. Return trivial\n     * moving average over the array of rates.\n     */\n    function _getRates(address holder, uint256 currentDay) internal view returns (uint256, uint256) {\n        uint256 totalSnlRate = 0;\n        uint256 holderSnlRate = 0;\n        for (uint256 i = 0; i < NUM_OF_RATES; i++) {\n            totalSnlRate += lastTotalRates[currentDay - i];\n            holderSnlRate += lastHolderRates[holder][currentDay - i];\n        }\n        totalSnlRate /= NUM_OF_RATES;\n        holderSnlRate /= NUM_OF_RATES;\n        require(holderSnlRate <= totalSnlRate, \"getRates: individual rate exceeds total rate\");\n        return (totalSnlRate, holderSnlRate);\n    }\n    function getRates(address holder, uint256 _timestamp) public view returns (uint256, uint256) {\n        uint256 currentDay = _timestamp / DAY_IN_SECONDS;\n        return _getRates(holder, currentDay);\n    }\n\n    /**\n     * Get interest rate based on the rate of the recent transaction volume.\n     *\n     * Note that any form of transfer including deposits, withdraws or p2p\n     * transfer do contribute to the tracked rates equally.\n     */\n    function _getSnlInterest(address holder, uint256 amountSnl, uint256 _timestamp) internal view returns (int128) {\n        (uint256 totalSnlRate, uint256 holderSnlRate) = getRates(holder, _timestamp);\n        totalSnlRate += amountSnl;\n        holderSnlRate += amountSnl;\n        uint256 futureTotalSupply = totalSupply() + amountSnl;\n        uint256 futureBalance = balanceOf(holder) + amountSnl;\n        int128 futureBalanceRatioPct = f64.divu(futureBalance * 100, futureTotalSupply);\n        int128 futureRateRatioPct = f64.divu(holderSnlRate * 100, totalSnlRate);\n        int128 interest = min(f64.avg(futureRateRatioPct, futureBalanceRatioPct), M);\n        int128 theta = f64.divu(balanceOf(holder) * 100, totalSupply());\n        int128 lprime = f64.sqrt(f64.mul(max(min(theta, L2), O), L));\n        interest = f64.sub(max(interest, lprime), lprime);\n        return interest;\n    }\n    function getSnlInterestPct(address holder, uint256 amountSnl, uint256 _timestamp) public view returns (uint256) {\n        return f64.toUInt(_getSnlInterest(holder, amountSnl, _timestamp));\n    }\n    function getSnlInterestPct(address holder, uint256 amountSnl) public view returns (uint256) {\n        return getSnlInterestPct(holder, amountSnl, now);\n    }\n    function getSnlInterest(address holder, uint256 amountSnl, uint256 _timestamp) public view returns (uint256) {\n        int128 interest = _getSnlInterest(holder, amountSnl, _timestamp);\n        uint256 interestSnl = f64.mulu(interest, amountSnl) / 100;\n        require(amountSnl > interestSnl, \"getSnlInterest: interest exceeds amountSnl\");\n        return interestSnl;\n    }\n    function getSnlInterest(address holder, uint256 amountSnl) public view returns (uint256) {\n        return getSnlInterest(holder, amountSnl, now);\n    }\n\n    /**\n     * Same as buying token at market price plus interest.\n     */\n    function depositEth() public payable returns (bool)  {\n        // Donation address is not allowed to affect pricing.\n        require(msg.sender != donationAddress, \"depositEth: donation address is sealed\");\n        require(msg.value > 0, \"depositEth: msg.value must be above zero\");\n        uint256 amountSnl = _convEth2Snl(msg.value, true);\n        require(amountSnl > 0, \"depositEth: amountSnl must be above zero\");\n        uint256 ts = now;\n        uint256 interest = getSnlInterest(msg.sender, amountSnl, ts);\n        // Tracking happens after finding and subtracting interest.\n        amountSnl = amountSnl.sub(interest);\n        trackSnlRates(amountSnl, ts);\n        _mint(msg.sender, amountSnl);\n        emit BoughtSnl(msg.sender, amountSnl + interest, msg.value);\n        emit InterestOnSnl(msg.sender, amountSnl + interest, interest);\n        return true;\n    }\n\n    /**\n     * Same as selling token at market price minus interest.\n     */\n    function withdrawEth(uint256 amountSnl) public returns (bool)  {\n        require(amountSnl > 0, \"withdrawEth: amountSnl must be above zero\");\n        require(balanceOf(msg.sender) >= amountSnl, \"withdrawEth: balance is too small\");\n        uint256 ts = now;\n        uint256 interest = getSnlInterest(msg.sender, amountSnl, ts);\n        amountSnl = amountSnl.sub(interest);\n        trackSnlRates(amountSnl, ts);\n        uint256 amountEth = convSnl2Eth(amountSnl);\n        uint256 depositInEth = address(this).balance;\n        require(depositInEth > amountEth, \"withdrawEth: not enough ETH\");\n        _burn(msg.sender, amountSnl + interest);\n        emit SoldSnl(msg.sender, amountSnl + interest, amountEth);\n        emit InterestOnSnl(msg.sender, amountSnl + interest, interest);\n        require(msg.sender.send(amountEth), \"withdrawEth: failed to send ETH\");\n        return true;\n    }\n\n    /**\n     * Extend to track transfers.\n     */\n    function transfer(address _to, uint256 _value) public returns (bool) {\n        require(_to != donationAddress, \"transfer: donation address is sealed\");\n        uint256 ts = now;\n        uint256 interest = getSnlInterest(msg.sender, _value, ts);\n        _value = _value.sub(interest);\n        require(_value > 0, \"transfer: zero value\");\n        trackSnlRates(_value, ts);\n        if (interest > 0) { _burn(msg.sender, interest); }\n        emit InterestOnSnl(msg.sender, _value + interest, interest);\n        require(super.transfer(_to, _value), \"transfer: failed\");\n        return true;\n    }\n\n    /**\n     * Extend to track transfers.\n     */\n    function transferFrom(address _from, address _to, uint256 _value) public returns (bool) {\n        require(_to != donationAddress, \"transferFrom: donation address is sealed\");\n        uint256 ts = now;\n        uint256 interest = getSnlInterest(msg.sender, _value, ts);\n        _value = _value.sub(interest);\n        require(_value > 0, \"transferFrom: zero value\");\n        trackSnlRates(_value, ts);\n        if (interest > 0) { _burn(msg.sender, interest); }\n        emit InterestOnSnl(msg.sender, _value + interest, interest);\n        require(super.transferFrom(_from, _to, _value), \"transferFrom: failed\");\n        return true;\n    }\n}\n",
  "sourcePath": "/Users/tk/dev/snl/shared/snl-wallet/contracts/SnailToken.sol",
  "compiler": {
    "name": "solc",
    "version": "0.5.9+commit.e560f70d.Emscripten.clang"
  },
  "schemaVersion": "3.0.10",
  "updatedAt": "2019-06-13T09:42:19.643Z",
  "devdoc": {
    "methods": {
      "allowance(address,address)": {
        "details": "See `IERC20.allowance`."
      },
      "approve(address,uint256)": {
        "details": "See `IERC20.approve`.     * Requirements:     * - `spender` cannot be the zero address."
      },
      "balanceOf(address)": {
        "details": "See `IERC20.balanceOf`."
      },
      "decimals()": {
        "details": "Returns the number of decimals used to get its user representation. For example, if `decimals` equals `2`, a balance of `505` tokens should be displayed to a user as `5,05` (`505 / 10 ** 2`).     * Tokens usually opt for a value of 18, imitating the relationship between Ether and Wei.     * > Note that this information is only used for _display_ purposes: it in no way affects any of the arithmetic of the contract, including `IERC20.balanceOf` and `IERC20.transfer`."
      },
      "decreaseAllowance(address,uint256)": {
        "details": "Atomically decreases the allowance granted to `spender` by the caller.     * This is an alternative to `approve` that can be used as a mitigation for problems described in `IERC20.approve`.     * Emits an `Approval` event indicating the updated allowance.     * Requirements:     * - `spender` cannot be the zero address. - `spender` must have allowance for the caller of at least `subtractedValue`."
      },
      "increaseAllowance(address,uint256)": {
        "details": "Atomically increases the allowance granted to `spender` by the caller.     * This is an alternative to `approve` that can be used as a mitigation for problems described in `IERC20.approve`.     * Emits an `Approval` event indicating the updated allowance.     * Requirements:     * - `spender` cannot be the zero address."
      },
      "name()": {
        "details": "Returns the name of the token."
      },
      "symbol()": {
        "details": "Returns the symbol of the token, usually a shorter version of the name."
      }
    }
  },
  "userdoc": {
    "methods": {
      "constructor": "Describe token: name, symbol, decimals.. and mint initial supply.",
      "convEth2Snl(uint256)": {
        "notice": "Convert ETH to SNL at the inner exchange rate (price), w/o applied interest."
      },
      "convSnl2Eth(uint256)": {
        "notice": "Convert SNL to ETH at the inner exchange rate (price), w/o applied interest."
      },
      "depositEth()": {
        "notice": "Same as buying token at market price plus interest."
      },
      "getEthDeposit()": {
        "notice": "Learn total ETH deposit supporting the token supply."
      },
      "getHolderRate(address,uint256)": {
        "notice": "Learn holder's rate."
      },
      "getTotalRate(uint256)": {
        "notice": "Learn total rate."
      },
      "totalSupply()": {
        "notice": "Prevent donation amount of affecting the price equilibrium."
      },
      "transfer(address,uint256)": {
        "notice": "Extend to track transfers."
      },
      "transferFrom(address,address,uint256)": {
        "notice": "Extend to track transfers."
      },
      "withdrawEth(uint256)": {
        "notice": "Same as selling token at market price minus interest."
      }
    },
    "notice": "The price of the token is computed as a ratio of the ETH deposit (reserve) to the total token supply. Deposit, withdraw or transfer operations may charge interest depending on the transaction rate. Interest is added to the common deposit, which is then shared between all of the token holders."
  }
}