{
  "contractName": "TestableSnailToken",
  "abi": [
    {
      "constant": true,
      "inputs": [],
      "name": "name",
      "outputs": [
        {
          "name": "",
          "type": "string"
        }
      ],
      "payable": false,
      "stateMutability": "view",
      "type": "function"
    },
    {
      "constant": false,
      "inputs": [
        {
          "name": "spender",
          "type": "address"
        },
        {
          "name": "value",
          "type": "uint256"
        }
      ],
      "name": "approve",
      "outputs": [
        {
          "name": "",
          "type": "bool"
        }
      ],
      "payable": false,
      "stateMutability": "nonpayable",
      "type": "function"
    },
    {
      "constant": true,
      "inputs": [
        {
          "name": "holder",
          "type": "address"
        },
        {
          "name": "amountSnl",
          "type": "uint256"
        }
      ],
      "name": "getSnlInterestPct",
      "outputs": [
        {
          "name": "",
          "type": "uint256"
        }
      ],
      "payable": false,
      "stateMutability": "view",
      "type": "function"
    },
    {
      "constant": true,
      "inputs": [
        {
          "name": "holder",
          "type": "address"
        },
        {
          "name": "amountSnl",
          "type": "uint256"
        }
      ],
      "name": "getSnlInterest",
      "outputs": [
        {
          "name": "",
          "type": "uint256"
        }
      ],
      "payable": false,
      "stateMutability": "view",
      "type": "function"
    },
    {
      "constant": true,
      "inputs": [],
      "name": "totalSupply",
      "outputs": [
        {
          "name": "",
          "type": "uint256"
        }
      ],
      "payable": false,
      "stateMutability": "view",
      "type": "function"
    },
    {
      "constant": true,
      "inputs": [
        {
          "name": "holder",
          "type": "address"
        },
        {
          "name": "amountSnl",
          "type": "uint256"
        },
        {
          "name": "_timestamp",
          "type": "uint256"
        }
      ],
      "name": "getSnlInterestPct",
      "outputs": [
        {
          "name": "",
          "type": "uint256"
        }
      ],
      "payable": false,
      "stateMutability": "view",
      "type": "function"
    },
    {
      "constant": true,
      "inputs": [
        {
          "name": "amountSnl",
          "type": "uint256"
        }
      ],
      "name": "convSnl2Eth",
      "outputs": [
        {
          "name": "",
          "type": "uint256"
        }
      ],
      "payable": false,
      "stateMutability": "view",
      "type": "function"
    },
    {
      "constant": false,
      "inputs": [
        {
          "name": "_from",
          "type": "address"
        },
        {
          "name": "_to",
          "type": "address"
        },
        {
          "name": "_value",
          "type": "uint256"
        }
      ],
      "name": "transferFrom",
      "outputs": [
        {
          "name": "",
          "type": "bool"
        }
      ],
      "payable": false,
      "stateMutability": "nonpayable",
      "type": "function"
    },
    {
      "constant": true,
      "inputs": [],
      "name": "decimals",
      "outputs": [
        {
          "name": "",
          "type": "uint8"
        }
      ],
      "payable": false,
      "stateMutability": "view",
      "type": "function"
    },
    {
      "constant": false,
      "inputs": [
        {
          "name": "spender",
          "type": "address"
        },
        {
          "name": "addedValue",
          "type": "uint256"
        }
      ],
      "name": "increaseAllowance",
      "outputs": [
        {
          "name": "",
          "type": "bool"
        }
      ],
      "payable": false,
      "stateMutability": "nonpayable",
      "type": "function"
    },
    {
      "constant": false,
      "inputs": [],
      "name": "depositEth",
      "outputs": [
        {
          "name": "",
          "type": "bool"
        }
      ],
      "payable": true,
      "stateMutability": "payable",
      "type": "function"
    },
    {
      "constant": true,
      "inputs": [],
      "name": "DAY_IN_SECONDS",
      "outputs": [
        {
          "name": "",
          "type": "uint256"
        }
      ],
      "payable": false,
      "stateMutability": "view",
      "type": "function"
    },
    {
      "constant": true,
      "inputs": [
        {
          "name": "account",
          "type": "address"
        }
      ],
      "name": "balanceOf",
      "outputs": [
        {
          "name": "",
          "type": "uint256"
        }
      ],
      "payable": false,
      "stateMutability": "view",
      "type": "function"
    },
    {
      "constant": true,
      "inputs": [
        {
          "name": "day",
          "type": "uint256"
        }
      ],
      "name": "getTotalRate",
      "outputs": [
        {
          "name": "",
          "type": "uint256"
        }
      ],
      "payable": false,
      "stateMutability": "view",
      "type": "function"
    },
    {
      "constant": true,
      "inputs": [
        {
          "name": "holder",
          "type": "address"
        },
        {
          "name": "day",
          "type": "uint256"
        }
      ],
      "name": "getHolderRate",
      "outputs": [
        {
          "name": "",
          "type": "uint256"
        }
      ],
      "payable": false,
      "stateMutability": "view",
      "type": "function"
    },
    {
      "constant": true,
      "inputs": [],
      "name": "symbol",
      "outputs": [
        {
          "name": "",
          "type": "string"
        }
      ],
      "payable": false,
      "stateMutability": "view",
      "type": "function"
    },
    {
      "constant": true,
      "inputs": [
        {
          "name": "amountEth",
          "type": "uint256"
        }
      ],
      "name": "convEth2Snl",
      "outputs": [
        {
          "name": "",
          "type": "uint256"
        }
      ],
      "payable": false,
      "stateMutability": "view",
      "type": "function"
    },
    {
      "constant": false,
      "inputs": [
        {
          "name": "spender",
          "type": "address"
        },
        {
          "name": "subtractedValue",
          "type": "uint256"
        }
      ],
      "name": "decreaseAllowance",
      "outputs": [
        {
          "name": "",
          "type": "bool"
        }
      ],
      "payable": false,
      "stateMutability": "nonpayable",
      "type": "function"
    },
    {
      "constant": false,
      "inputs": [
        {
          "name": "_to",
          "type": "address"
        },
        {
          "name": "_value",
          "type": "uint256"
        }
      ],
      "name": "transfer",
      "outputs": [
        {
          "name": "",
          "type": "bool"
        }
      ],
      "payable": false,
      "stateMutability": "nonpayable",
      "type": "function"
    },
    {
      "constant": false,
      "inputs": [
        {
          "name": "amountSnl",
          "type": "uint256"
        }
      ],
      "name": "withdrawEth",
      "outputs": [
        {
          "name": "",
          "type": "bool"
        }
      ],
      "payable": false,
      "stateMutability": "nonpayable",
      "type": "function"
    },
    {
      "constant": true,
      "inputs": [
        {
          "name": "owner",
          "type": "address"
        },
        {
          "name": "spender",
          "type": "address"
        }
      ],
      "name": "allowance",
      "outputs": [
        {
          "name": "",
          "type": "uint256"
        }
      ],
      "payable": false,
      "stateMutability": "view",
      "type": "function"
    },
    {
      "constant": true,
      "inputs": [
        {
          "name": "holder",
          "type": "address"
        },
        {
          "name": "_timestamp",
          "type": "uint256"
        }
      ],
      "name": "getRates",
      "outputs": [
        {
          "name": "",
          "type": "uint256"
        },
        {
          "name": "",
          "type": "uint256"
        }
      ],
      "payable": false,
      "stateMutability": "view",
      "type": "function"
    },
    {
      "constant": true,
      "inputs": [],
      "name": "getEthDeposit",
      "outputs": [
        {
          "name": "",
          "type": "uint256"
        }
      ],
      "payable": false,
      "stateMutability": "view",
      "type": "function"
    },
    {
      "constant": true,
      "inputs": [
        {
          "name": "holder",
          "type": "address"
        },
        {
          "name": "amountSnl",
          "type": "uint256"
        },
        {
          "name": "_timestamp",
          "type": "uint256"
        }
      ],
      "name": "getSnlInterest",
      "outputs": [
        {
          "name": "",
          "type": "uint256"
        }
      ],
      "payable": false,
      "stateMutability": "view",
      "type": "function"
    },
    {
      "constant": true,
      "inputs": [],
      "name": "NUM_OF_RATES",
      "outputs": [
        {
          "name": "",
          "type": "uint256"
        }
      ],
      "payable": false,
      "stateMutability": "view",
      "type": "function"
    },
    {
      "anonymous": false,
      "inputs": [
        {
          "indexed": false,
          "name": "message",
          "type": "string"
        }
      ],
      "name": "Log",
      "type": "event"
    },
    {
      "anonymous": false,
      "inputs": [
        {
          "indexed": false,
          "name": "message",
          "type": "uint256"
        }
      ],
      "name": "LogUint",
      "type": "event"
    },
    {
      "anonymous": false,
      "inputs": [
        {
          "indexed": false,
          "name": "sender",
          "type": "address"
        },
        {
          "indexed": false,
          "name": "snlAmount",
          "type": "uint256"
        },
        {
          "indexed": false,
          "name": "interest",
          "type": "uint256"
        }
      ],
      "name": "InterestOnSnl",
      "type": "event"
    },
    {
      "anonymous": false,
      "inputs": [
        {
          "indexed": false,
          "name": "buyer",
          "type": "address"
        },
        {
          "indexed": false,
          "name": "snlAmount",
          "type": "uint256"
        },
        {
          "indexed": false,
          "name": "ethAmount",
          "type": "uint256"
        }
      ],
      "name": "SoldSnl",
      "type": "event"
    },
    {
      "anonymous": false,
      "inputs": [
        {
          "indexed": false,
          "name": "seller",
          "type": "address"
        },
        {
          "indexed": false,
          "name": "snlAmount",
          "type": "uint256"
        },
        {
          "indexed": false,
          "name": "ethAmount",
          "type": "uint256"
        }
      ],
      "name": "BoughtSnl",
      "type": "event"
    },
    {
      "anonymous": false,
      "inputs": [
        {
          "indexed": true,
          "name": "from",
          "type": "address"
        },
        {
          "indexed": true,
          "name": "to",
          "type": "address"
        },
        {
          "indexed": false,
          "name": "value",
          "type": "uint256"
        }
      ],
      "name": "Transfer",
      "type": "event"
    },
    {
      "anonymous": false,
      "inputs": [
        {
          "indexed": true,
          "name": "owner",
          "type": "address"
        },
        {
          "indexed": true,
          "name": "spender",
          "type": "address"
        },
        {
          "indexed": false,
          "name": "value",
          "type": "uint256"
        }
      ],
      "name": "Approval",
      "type": "event"
    },
    {
      "constant": false,
      "inputs": [
        {
          "name": "message",
          "type": "string"
        }
      ],
      "name": "log",
      "outputs": [],
      "payable": false,
      "stateMutability": "nonpayable",
      "type": "function"
    },
    {
      "constant": false,
      "inputs": [
        {
          "name": "message",
          "type": "uint256"
        }
      ],
      "name": "logUint",
      "outputs": [],
      "payable": false,
      "stateMutability": "nonpayable",
      "type": "function"
    },
    {
      "constant": false,
      "inputs": [
        {
          "name": "_value",
          "type": "uint256"
        },
        {
          "name": "_timestamp",
          "type": "uint256"
        }
      ],
      "name": "trackTotalRates",
      "outputs": [
        {
          "name": "",
          "type": "bool"
        }
      ],
      "payable": false,
      "stateMutability": "nonpayable",
      "type": "function"
    },
    {
      "constant": false,
      "inputs": [
        {
          "name": "_value",
          "type": "uint256"
        },
        {
          "name": "_timestamp",
          "type": "uint256"
        }
      ],
      "name": "trackHolderRates",
      "outputs": [
        {
          "name": "",
          "type": "bool"
        }
      ],
      "payable": false,
      "stateMutability": "nonpayable",
      "type": "function"
    }
  ],
  "bytecode": "0x600a60808181527f536e61696c546f6b656e0000000000000000000000000000000000000000000060a0908152610100604052600360c08181527f534e4c000000000000000000000000000000000000000000000000000000000060e05292936012926200006e929162000398565b5081516200008490600490602085019062000398565b506005805442600655336101008102610100600160a81b031960ff90951660ff199093169290921793909316179055620000d6925090506a0156a1cc5c988c1145cf2a6001600160e01b03620001e316565b42600881905550620000f46010620002fe60201b62001faf1760201c565b600d60006101000a8154816001600160801b030219169083600f0b6001600160801b03160217905550620001346004620002fe60201b62001faf1760201c565b600d60106101000a8154816001600160801b030219169083600f0b6001600160801b0316021790555062000174601a620002fe60201b62001faf1760201c565b600e60006101000a8154816001600160801b030219169083600f0b6001600160801b03160217905550620001b46001620002fe60201b62001faf1760201c565b600e60106101000a8154816001600160801b030219169083600f0b6001600160801b031602179055506200043d565b6001600160a01b0382166200025957604080517f08c379a000000000000000000000000000000000000000000000000000000000815260206004820152601f60248201527f45524332303a206d696e7420746f20746865207a65726f206164647265737300604482015290519081900360640190fd5b62000275816002546200031c60201b620018621790919060201c565b6002556001600160a01b03821660009081526020818152604090912054620002a8918390620018626200031c821b17901c565b6001600160a01b0383166000818152602081815260408083209490945583518581529351929391927fddf252ad1be2c89b69c2b068fc378daa952ba7f163c4a11628f55a4df523b3ef9281900390910190a35050565b600060016001603f1b038211156200031557600080fd5b5060401b90565b6000828201838110156200039157604080517f08c379a000000000000000000000000000000000000000000000000000000000815260206004820152601b60248201527f536166654d6174683a206164646974696f6e206f766572666c6f770000000000604482015290519081900360640190fd5b9392505050565b828054600181600116156101000203166002900490600052602060002090601f016020900481019282601f10620003db57805160ff19168380011785556200040b565b828001600101855582156200040b579182015b828111156200040b578251825591602001919060010190620003ee565b50620004199291506200041d565b5090565b6200043a91905b8082111562000419576000815560010162000424565b90565b612278806200044d6000396000f3fe6080604052600436106101c25760003560e01c80635fdc6281116100f7578063a457c2d711610095578063ddfafa9611610064578063ddfafa961461074f578063dfcaaf69146107a1578063f097d4a1146107b6578063ff813eb0146107f5576101c2565b8063a457c2d714610678578063a9059cbb146106b1578063c311d049146106ea578063dd62ed3e14610714576101c2565b80638c572e83116100d15780638c572e83146105d657806395d89b411461060f57806398c829bc146106245780639905b7441461064e576101c2565b80635fdc62811461056457806370a0823114610579578063715b913b146105ac576101c2565b806323b872dd11610164578063395093511161013e578063395093511461043e57806341304fac14610477578063439370b11461052c578063506e6cf814610534576101c2565b806323b872dd146103a0578063313ce567146103e35780633463e3e41461040e576101c2565b806312ba95bc116101a057806312ba95bc146102e957806318160ddd146103225780631a0ee1a91461033757806320d8171d14610376576101c2565b806306fdde03146101c7578063095ea7b31461025157806311e536921461029e575b600080fd5b3480156101d357600080fd5b506101dc61080a565b6040805160208082528351818301528351919283929083019185019080838360005b838110156102165781810151838201526020016101fe565b50505050905090810190601f1680156102435780820380516001836020036101000a031916815260200191505b509250505060405180910390f35b34801561025d57600080fd5b5061028a6004803603604081101561027457600080fd5b506001600160a01b0381351690602001356108a0565b604080519115158252519081900360200190f35b3480156102aa57600080fd5b506102d7600480360360408110156102c157600080fd5b506001600160a01b0381351690602001356108b7565b60408051918252519081900360200190f35b3480156102f557600080fd5b506102d76004803603604081101561030c57600080fd5b506001600160a01b0381351690602001356108cb565b34801561032e57600080fd5b506102d76108d8565b34801561034357600080fd5b506102d76004803603606081101561035a57600080fd5b506001600160a01b03813516906020810135906040013561095f565b34801561038257600080fd5b506102d76004803603602081101561039957600080fd5b5035610986565b3480156103ac57600080fd5b5061028a600480360360608110156103c357600080fd5b506001600160a01b038135811691602081013590911690604001356109ad565b3480156103ef57600080fd5b506103f8610b22565b6040805160ff9092168252519081900360200190f35b34801561041a57600080fd5b5061028a6004803603604081101561043157600080fd5b5080359060200135610b2b565b34801561044a57600080fd5b5061028a6004803603604081101561046157600080fd5b506001600160a01b038135169060200135610b45565b34801561048357600080fd5b5061052a6004803603602081101561049a57600080fd5b8101906020810181356401000000008111156104b557600080fd5b8201836020820111156104c757600080fd5b803590602001918460018302840111640100000000831117156104e957600080fd5b91908080601f016020809104026020016040519081016040528093929190818152602001838380828437600092019190915250929550610b86945050505050565b005b61028a610c22565b34801561054057600080fd5b5061028a6004803603604081101561055757600080fd5b5080359060200135610db1565b34801561057057600080fd5b506102d7610dc3565b34801561058557600080fd5b506102d76004803603602081101561059c57600080fd5b50356001600160a01b0316610dca565b3480156105b857600080fd5b506102d7600480360360208110156105cf57600080fd5b5035610de5565b3480156105e257600080fd5b506102d7600480360360408110156105f957600080fd5b506001600160a01b038135169060200135610df7565b34801561061b57600080fd5b506101dc610e1f565b34801561063057600080fd5b506102d76004803603602081101561064757600080fd5b5035610e80565b34801561065a57600080fd5b5061052a6004803603602081101561067157600080fd5b5035610e8d565b34801561068457600080fd5b5061028a6004803603604081101561069b57600080fd5b506001600160a01b038135169060200135610ec3565b3480156106bd57600080fd5b5061028a600480360360408110156106d457600080fd5b506001600160a01b038135169060200135610eff565b3480156106f657600080fd5b5061028a6004803603602081101561070d57600080fd5b5035611065565b34801561072057600080fd5b506102d76004803603604081101561073757600080fd5b506001600160a01b0381358116916020013516611265565b34801561075b57600080fd5b506107886004803603604081101561077257600080fd5b506001600160a01b038135169060200135611290565b6040805192835260208301919091528051918290030190f35b3480156107ad57600080fd5b506102d76112af565b3480156107c257600080fd5b506102d7600480360360608110156107d957600080fd5b506001600160a01b0381351690602081013590604001356112bf565b34801561080157600080fd5b506102d761132e565b60038054604080516020601f60026000196101006001881615020190951694909404938401819004810282018101909252828152606093909290918301828280156108965780601f1061086b57610100808354040283529160200191610896565b820191906000526020600020905b81548152906001019060200180831161087957829003601f168201915b5050505050905090565b60006108ad338484611333565b5060015b92915050565b60006108c483834261095f565b9392505050565b60006108c48383426112bf565b6000806108e361141f565b90506006546301e1338001421080610917575060055481906109129061010090046001600160a01b0316610dca565b600202115b1561094a576005546109479061093a9061010090046001600160a01b0316610dca565b829063ffffffff61142516565b90505b80156109565780610959565b60015b91505090565b600061097461096f858585611482565b611588565b67ffffffffffffffff16949350505050565b6000806109a16109946112af565b61099c6108d8565b6115a4565b90506108c4818461162a565b6005546000906001600160a01b03848116610100909204161415610a025760405162461bcd60e51b8152600401808060200182810382526028815260200180611ff16028913960400191505060405180910390fd5b426000610a103385846112bf565b9050610a22848263ffffffff61142516565b935060008411610a79576040805162461bcd60e51b815260206004820152601860248201527f7472616e7366657246726f6d3a207a65726f2076616c75650000000000000000604482015290519081900360640190fd5b610a838483611696565b508015610a9457610a9433826116cc565b60408051338152858301602082015280820183905290516000805160206120198339815191529181900360600190a1610ace8686866117a5565b610b16576040805162461bcd60e51b81526020600482015260146024820152731d1c985b9cd9995c919c9bdb4e8819985a5b195960621b604482015290519081900360640190fd5b50600195945050505050565b60055460ff1690565b6000620151808204610b3d84826117f7565b949350505050565b3360008181526001602090815260408083206001600160a01b038716845290915281205490916108ad918590610b81908663ffffffff61186216565b611333565b7fcf34ef537ac33ee1ac626ca1587a0a7e8e51561e5514f8cb36afa1c5102b3bab816040518080602001828103825283818151815260200191508051906020019080838360005b83811015610be5578181015183820152602001610bcd565b50505050905090810190601f168015610c125780820380516001836020036101000a031916815260200191505b509250505060405180910390a150565b60055460009061010090046001600160a01b0316331415610c745760405162461bcd60e51b81526004018080602001828103825260268152602001806120c46026913960400191505060405180910390fd5b60003411610cb35760405162461bcd60e51b815260040180806020018281038252602881526020018061215a6028913960400191505060405180910390fd5b6000610cc03460016118bc565b905060008111610d015760405162461bcd60e51b81526004018080602001828103825260288152602001806121f36028913960400191505060405180910390fd5b426000610d0f3384846112bf565b9050610d21838263ffffffff61142516565b9250610d2d8383611696565b50610d383384611912565b604080513381528483016020820152348183015290517fe30af93ae01d2aa9a92877abd48e5f2e99ee992051a8da0720abd6594324e1da9181900360600190a160408051338152848301602082015280820183905290516000805160206120198339815191529181900360600190a16001935050505090565b6000620151808204610b3d8482611a02565b6201518081565b6001600160a01b031660009081526020819052604090205490565b6000908152600a602052604090205490565b6001600160a01b03919091166000908152600c60209081526040808320938352929052205490565b60048054604080516020601f60026000196101006001881615020190951694909404938401819004810282018101909252828152606093909290918301828280156108965780601f1061086b57610100808354040283529160200191610896565b60006108b18260006118bc565b6040805182815290517f0ac68d08c5119b8cdb4058edbf0d4168f208ec3935d26a8f1f0d92eb9d4de8bf9181900360200190a150565b3360008181526001602090815260408083206001600160a01b038716845290915281205490916108ad918590610b81908663ffffffff61142516565b6005546000906001600160a01b03848116610100909204161415610f545760405162461bcd60e51b81526004018080602001828103825260248152602001806120396024913960400191505060405180910390fd5b426000610f623385846112bf565b9050610f74848263ffffffff61142516565b935060008411610fc2576040805162461bcd60e51b81526020600482015260146024820152737472616e736665723a207a65726f2076616c756560601b604482015290519081900360640190fd5b610fcc8483611696565b508015610fdd57610fdd33826116cc565b60408051338152858301602082015280820183905290516000805160206120198339815191529181900360600190a16110168585611a97565b61105a576040805162461bcd60e51b815260206004820152601060248201526f1d1c985b9cd9995c8e8819985a5b195960821b604482015290519081900360640190fd5b506001949350505050565b60008082116110a55760405162461bcd60e51b815260040180806020018281038252602981526020018061221b6029913960400191505060405180910390fd5b816110af33610dca565b10156110ec5760405162461bcd60e51b81526004018080602001828103825260218152602001806121826021913960400191505060405180910390fd5b4260006110fa3385846112bf565b905061110c848263ffffffff61142516565b93506111188483611696565b50600061112485610986565b9050303181811161117c576040805162461bcd60e51b815260206004820152601b60248201527f77697468647261774574683a206e6f7420656e6f756768204554480000000000604482015290519081900360640190fd5b611188338488016116cc565b60408051338152878501602082015280820184905290517fcc85adc74c7364068f4d8cbcd901f8bb65bd228d092aa8085fde5259ba488c069181900360600190a160408051338152878501602082015280820185905290516000805160206120198339815191529181900360600190a1604051339083156108fc029084906000818181858888f19350505050610b16576040805162461bcd60e51b815260206004820152601f60248201527f77697468647261774574683a206661696c656420746f2073656e642045544800604482015290519081900360640190fd5b6001600160a01b03918216600090815260016020908152604080832093909416825291909152205490565b6000806201518083046112a38582611aa4565b92509250509250929050565b6000303180156109565780610959565b6000806112cd858585611482565b9050600060646112dd838761162a565b816112e457fe5b0490508085116113255760405162461bcd60e51b815260040180806020018281038252602a8152602001806120ea602a913960400191505060405180910390fd5b95945050505050565b601981565b6001600160a01b0383166113785760405162461bcd60e51b81526004018080602001828103825260248152602001806121a36024913960400191505060405180910390fd5b6001600160a01b0382166113bd5760405162461bcd60e51b815260040180806020018281038252602281526020018061205d6022913960400191505060405180910390fd5b6001600160a01b03808416600081815260016020908152604080832094871680845294825291829020859055815185815291517f8c5be1e5ebec7d5bd14f71427d1e84f3dd0314c0f7b2291e5b200ac8c7c3b9259281900390910190a3505050565b60025490565b60008282111561147c576040805162461bcd60e51b815260206004820152601e60248201527f536166654d6174683a207375627472616374696f6e206f766572666c6f770000604482015290519081900360640190fd5b50900390565b60008060006114918685611290565b9086019250850190506000856114a56108d8565b0190506000866114b489610dca565b01905060006114c68260640284611b4a565b905060006114d78560640287611b4a565b905060006114f36114e88385611b81565b600e54600f0b611b8f565b905060006115136115038d610dca565b60640261150e6108d8565b611b4a565b9050600061156261155d61154b61153985600d60009054906101000a9004600f0b611b8f565b600e54600160801b9004600f0b611bc7565b600d54600160801b9004600f0b611bf8565b611c2f565b90506115776115718483611bc7565b82611c56565b9d9c50505050505050505050505050565b60008082600f0b121561159a57600080fd5b50600f0b60401d90565b6000806115b18484611b4a565b905060016001607f1b03600f82900b126115d55760016001607f1b039150506108b1565b68040000000000000000600f82900b131561160d576116056115f682611c2f565b68020000000000000000611bf8565b9150506108b1565b600160401b600f82900b12156108c457600160401b9150506108b1565b600081611639575060006108b1565b600083600f0b121561164a57600080fd5b600f83900b6001600160801b038316810260401c90608084901c026001600160c01b0381111561167957600080fd5b60401b60001982900381111561168e57600080fd5b019392505050565b6000620151808204816116a985836117f7565b90508080156116bd57506116bd8583611a02565b60088590559250505092915050565b6001600160a01b0382166117115760405162461bcd60e51b81526004018080602001828103825260218152602001806121146021913960400191505060405180910390fd5b600254611724908263ffffffff61142516565b6002556001600160a01b038216600090815260208190526040902054611750908263ffffffff61142516565b6001600160a01b038316600081815260208181526040808320949094558351858152935191937fddf252ad1be2c89b69c2b068fc378daa952ba7f163c4a11628f55a4df523b3ef929081900390910190a35050565b60006117b2848484611c89565b6001600160a01b0384166000908152600160209081526040808320338085529252909120546117ed918691610b81908663ffffffff61142516565b5060019392505050565b600081600754111561183a5760405162461bcd60e51b81526004018080602001828103825260228152602001806120a26022913960400191505060405180910390fd5b6000828152600a602052604090208054840190556007548211156108ad575060075550600190565b6000828201838110156108c4576040805162461bcd60e51b815260206004820152601b60248201527f536166654d6174683a206164646974696f6e206f766572666c6f770000000000604482015290519081900360640190fd5b6000806118c76112af565b905082156118f0578381116118dd5760016118ed565b6118ed818563ffffffff61142516565b90505b60006119066119018361099c6108d8565b611dcb565b9050611325818661162a565b6001600160a01b03821661196d576040805162461bcd60e51b815260206004820152601f60248201527f45524332303a206d696e7420746f20746865207a65726f206164647265737300604482015290519081900360640190fd5b600254611980908263ffffffff61186216565b6002556001600160a01b0382166000908152602081905260409020546119ac908263ffffffff61186216565b6001600160a01b0383166000818152602081815260408083209490945583518581529351929391927fddf252ad1be2c89b69c2b068fc378daa952ba7f163c4a11628f55a4df523b3ef9281900390910190a35050565b336000908152600b6020526040812054821015611a505760405162461bcd60e51b815260040180806020018281038252602381526020018061207f6023913960400191505060405180910390fd5b336000818152600c602090815260408083208684528252808320805488019055928252600b905220548211156108ad5750336000908152600b602052604090205550600190565b60006108ad338484611c89565b6000808080805b6019811015611af6578086036000818152600a60209081526040808320546001600160a01b038c168452600c8352818420948452939091529020549301929190910190600101611aab565b5060199182900491900481811115611b3f5760405162461bcd60e51b815260040180806020018281038252602c8152602001806121c7602c913960400191505060405180910390fd5b909590945092505050565b600081611b5657600080fd5b6000611b628484611e1b565b905060016001607f1b036001600160801b03821611156108c457600080fd5b600f91820b910b0160011d90565b6000611ba382670de0b6b3a764000061162a565b611bb584670de0b6b3a764000061162a565b10611bc057816108c4565b5090919050565b6000611bdb82670de0b6b3a764000061162a565b611bed84670de0b6b3a764000061162a565b11611bc057816108c4565b6000600f83810b9083900b0260401d60016001607f1b03198112801590611c26575060016001607f1b038113155b6108c457600080fd5b60008082600f0b1215611c4157600080fd5b6108b1604083600f0b901b600160401b611f43565b6000600f82810b9084900b0360016001607f1b03198112801590611c26575060016001607f1b038113156108c457600080fd5b6001600160a01b038316611cce5760405162461bcd60e51b81526004018080602001828103825260258152602001806121356025913960400191505060405180910390fd5b6001600160a01b038216611d135760405162461bcd60e51b8152600401808060200182810382526023815260200180611fce6023913960400191505060405180910390fd5b6001600160a01b038316600090815260208190526040902054611d3c908263ffffffff61142516565b6001600160a01b038085166000908152602081905260408082209390935590841681522054611d71908263ffffffff61186216565b6001600160a01b038084166000818152602081815260409182902094909455805185815290519193928716927fddf252ad1be2c89b69c2b068fc378daa952ba7f163c4a11628f55a4df523b3ef92918290030190a3505050565b600081600f0b60001415611dde57600080fd5b600082600f0b600160801b81611df057fe5b05905060016001607f1b03198112801590611e12575060016001607f1b038113155b6108b157600080fd5b600081611e2757600080fd5b60006001600160c01b038411611e4c5782604085901b81611e4457fe5b049050611f2f565b60c060ff5b80821015611e955781810160011c86811c80611e7257600182039250611e8e565b6001811115611e8657816001019350611e8e565b509150611e95565b5050611e51565b60bf820360018603901c6001018260ff0387901b81611eb057fe5b0492506001600160801b03831115611ec757600080fd5b608085901c83026001600160801b038616840260c088901c604089901b82811015611ef3576001820391505b608084901b92900382811015611f0a576001820391505b829003608084901c8214611f1a57fe5b888181611f2357fe5b04870196505050505050505b6001600160801b038111156108c457600080fd5b600082611f52575060006108b1565b60008211611f5f57600080fd5b6000828481611f6a57fe5b04905080831480611f7d57508083600101145b15611f8b57829150506108b1565b80600101831415611f9d5790506108b1565b6001818401600101901c925050611f5f565b6000677fffffffffffffff821115611fc657600080fd5b5060401b9056fe45524332303a207472616e7366657220746f20746865207a65726f20616464726573737472616e7366657246726f6d3a20646f6e6174696f6e2061646472657373206973207365616c6564c02aebe2848fe620b4a0811be6b1e017255853ee942c60f6b0667e234732b3d17472616e736665723a20646f6e6174696f6e2061646472657373206973207365616c656445524332303a20617070726f766520746f20746865207a65726f20616464726573735f747261636b486f6c64657252617465733a2077726f6e672063757272656e744461795f747261636b546f74616c52617465733a2077726f6e672063757272656e744461796465706f7369744574683a20646f6e6174696f6e2061646472657373206973207365616c6564676574536e6c496e7465726573743a20696e746572657374206578636565647320616d6f756e74536e6c45524332303a206275726e2066726f6d20746865207a65726f206164647265737345524332303a207472616e736665722066726f6d20746865207a65726f20616464726573736465706f7369744574683a206d73672e76616c7565206d7573742062652061626f7665207a65726f77697468647261774574683a2062616c616e636520697320746f6f20736d616c6c45524332303a20617070726f76652066726f6d20746865207a65726f206164647265737367657452617465733a20696e646976696475616c2072617465206578636565647320746f74616c20726174656465706f7369744574683a20616d6f756e74536e6c206d7573742062652061626f7665207a65726f77697468647261774574683a20616d6f756e74536e6c206d7573742062652061626f7665207a65726fa265627a7a7230582078737d2456000ade5349968712e628de819bf36b4597a2d0c4356c0804b7d73664736f6c63430005090032",
  "source": "/**\n * Testable/debuggable version of SnailToken.sol.\n *\n * (c) Takeshi Kodo, under the MIT License (MIT)\n */\npragma solidity ^0.5.8;\n\nimport './dhelper.sol';\nimport './SnailToken.sol';\n\n\ncontract TestableSnailToken is SnailToken {\n    // FIXME: TEST/DEBUG ONLY\n    // BEGIN LOG\n    event Log(string message);\n    event LogUint(uint message);\n    function log(string memory message) public {\n        emit Log(message);\n    }\n    function logUint(uint message) public {\n        emit LogUint(message);\n    }\n    // END LOG\n\n    // FIXME: TEST/DEBUG ONLY\n    // BEGIN TRACK\n    function trackTotalRates(uint256 _value, uint256 _timestamp) public returns (bool)  {\n        uint256 currentDay = _timestamp / DAY_IN_SECONDS;\n        return _trackTotalRates(_value, currentDay);\n    }\n    function trackHolderRates(uint256 _value, uint256 _timestamp) public returns (bool) {\n        uint256 currentDay = _timestamp / DAY_IN_SECONDS;\n        return _trackHolderRates(_value, currentDay);\n    }\n    // END TRACK\n}",
  "sourcePath": "/Users/tk/dev/snl/shared/snl-wallet/contracts/TestableSnailToken.sol",
  "compiler": {
    "name": "solc",
    "version": "0.5.9+commit.e560f70d.Emscripten.clang"
  },
  "schemaVersion": "3.0.10",
  "updatedAt": "2019-06-13T09:42:19.735Z",
  "devdoc": {
    "methods": {
      "allowance(address,address)": {
        "details": "See `IERC20.allowance`."
      },
      "approve(address,uint256)": {
        "details": "See `IERC20.approve`.     * Requirements:     * - `spender` cannot be the zero address."
      },
      "balanceOf(address)": {
        "details": "See `IERC20.balanceOf`."
      },
      "decimals()": {
        "details": "Returns the number of decimals used to get its user representation. For example, if `decimals` equals `2`, a balance of `505` tokens should be displayed to a user as `5,05` (`505 / 10 ** 2`).     * Tokens usually opt for a value of 18, imitating the relationship between Ether and Wei.     * > Note that this information is only used for _display_ purposes: it in no way affects any of the arithmetic of the contract, including `IERC20.balanceOf` and `IERC20.transfer`."
      },
      "decreaseAllowance(address,uint256)": {
        "details": "Atomically decreases the allowance granted to `spender` by the caller.     * This is an alternative to `approve` that can be used as a mitigation for problems described in `IERC20.approve`.     * Emits an `Approval` event indicating the updated allowance.     * Requirements:     * - `spender` cannot be the zero address. - `spender` must have allowance for the caller of at least `subtractedValue`."
      },
      "increaseAllowance(address,uint256)": {
        "details": "Atomically increases the allowance granted to `spender` by the caller.     * This is an alternative to `approve` that can be used as a mitigation for problems described in `IERC20.approve`.     * Emits an `Approval` event indicating the updated allowance.     * Requirements:     * - `spender` cannot be the zero address."
      },
      "name()": {
        "details": "Returns the name of the token."
      },
      "symbol()": {
        "details": "Returns the symbol of the token, usually a shorter version of the name."
      }
    }
  },
  "userdoc": {
    "methods": {
      "convEth2Snl(uint256)": {
        "notice": "Convert ETH to SNL at the inner exchange rate (price), w/o applied interest."
      },
      "convSnl2Eth(uint256)": {
        "notice": "Convert SNL to ETH at the inner exchange rate (price), w/o applied interest."
      },
      "depositEth()": {
        "notice": "Same as buying token at market price plus interest."
      },
      "getEthDeposit()": {
        "notice": "Learn total ETH deposit supporting the token supply."
      },
      "getHolderRate(address,uint256)": {
        "notice": "Learn holder's rate."
      },
      "getTotalRate(uint256)": {
        "notice": "Learn total rate."
      },
      "totalSupply()": {
        "notice": "Prevent donation amount of affecting the price equilibrium."
      },
      "transfer(address,uint256)": {
        "notice": "Extend to track transfers."
      },
      "transferFrom(address,address,uint256)": {
        "notice": "Extend to track transfers."
      },
      "withdrawEth(uint256)": {
        "notice": "Same as selling token at market price minus interest."
      }
    }
  }
}